{
  "address": "0xaF299E33097bFf414E084045b1f30a114965FA64",
  "abi": [
    {
      "inputs": [],
      "stateMutability": "nonpayable",
      "type": "constructor"
    },
    {
      "inputs": [],
      "name": "Insufficient_Balance",
      "type": "error"
    },
    {
      "inputs": [],
      "name": "Not_Authotrised",
      "type": "error"
    },
    {
      "inputs": [],
      "name": "Orderbook_Not_Found",
      "type": "error"
    },
    {
      "inputs": [],
      "name": "Transaction_Failed",
      "type": "error"
    },
    {
      "anonymous": false,
      "inputs": [
        {
          "indexed": true,
          "internalType": "address",
          "name": "orderbookAddr",
          "type": "address"
        }
      ],
      "name": "Orderbook_Created",
      "type": "event"
    },
    {
      "inputs": [
        {
          "internalType": "address",
          "name": "_token",
          "type": "address"
        }
      ],
      "name": "_balanceOf",
      "outputs": [
        {
          "internalType": "uint256",
          "name": "",
          "type": "uint256"
        }
      ],
      "stateMutability": "view",
      "type": "function"
    },
    {
      "inputs": [
        {
          "internalType": "uint256",
          "name": "_total",
          "type": "uint256"
        },
        {
          "internalType": "address",
          "name": "_base",
          "type": "address"
        },
        {
          "internalType": "address",
          "name": "_quote",
          "type": "address"
        }
      ],
      "name": "buyAtMarketPrice",
      "outputs": [],
      "stateMutability": "nonpayable",
      "type": "function"
    },
    {
      "inputs": [
        {
          "internalType": "address",
          "name": "_base",
          "type": "address"
        },
        {
          "internalType": "address",
          "name": "_quote",
          "type": "address"
        }
      ],
      "name": "createOrderbook",
      "outputs": [],
      "stateMutability": "nonpayable",
      "type": "function"
    },
    {
      "inputs": [
        {
          "internalType": "address",
          "name": "_user",
          "type": "address"
        },
        {
          "internalType": "address",
          "name": "_token",
          "type": "address"
        },
        {
          "internalType": "uint256",
          "name": "_amount",
          "type": "uint256"
        }
      ],
      "name": "deductBalance",
      "outputs": [],
      "stateMutability": "nonpayable",
      "type": "function"
    },
    {
      "inputs": [
        {
          "internalType": "address",
          "name": "_contract",
          "type": "address"
        },
        {
          "internalType": "uint256",
          "name": "_amount",
          "type": "uint256"
        }
      ],
      "name": "deposit",
      "outputs": [],
      "stateMutability": "nonpayable",
      "type": "function"
    },
    {
      "inputs": [
        {
          "internalType": "address",
          "name": "",
          "type": "address"
        }
      ],
      "name": "isMapContract",
      "outputs": [
        {
          "internalType": "bool",
          "name": "",
          "type": "bool"
        }
      ],
      "stateMutability": "view",
      "type": "function"
    },
    {
      "inputs": [
        {
          "internalType": "address",
          "name": "",
          "type": "address"
        },
        {
          "internalType": "address",
          "name": "",
          "type": "address"
        }
      ],
      "name": "orderbooks",
      "outputs": [
        {
          "internalType": "contract Orderbook",
          "name": "",
          "type": "address"
        }
      ],
      "stateMutability": "view",
      "type": "function"
    },
    {
      "inputs": [
        {
          "internalType": "uint256",
          "name": "_limitPrice",
          "type": "uint256"
        },
        {
          "internalType": "uint256",
          "name": "_quantity",
          "type": "uint256"
        },
        {
          "internalType": "address",
          "name": "_base",
          "type": "address"
        },
        {
          "internalType": "address",
          "name": "_quote",
          "type": "address"
        }
      ],
      "name": "placeBuyOrder",
      "outputs": [],
      "stateMutability": "nonpayable",
      "type": "function"
    },
    {
      "inputs": [
        {
          "internalType": "uint256",
          "name": "_limitPrice",
          "type": "uint256"
        },
        {
          "internalType": "uint256",
          "name": "_quantity",
          "type": "uint256"
        },
        {
          "internalType": "address",
          "name": "_base",
          "type": "address"
        },
        {
          "internalType": "address",
          "name": "_quote",
          "type": "address"
        }
      ],
      "name": "placeSellOrder",
      "outputs": [],
      "stateMutability": "nonpayable",
      "type": "function"
    },
    {
      "inputs": [
        {
          "internalType": "uint256",
          "name": "_total",
          "type": "uint256"
        },
        {
          "internalType": "address",
          "name": "_base",
          "type": "address"
        },
        {
          "internalType": "address",
          "name": "_quote",
          "type": "address"
        }
      ],
      "name": "sellAtMarketPrice",
      "outputs": [],
      "stateMutability": "nonpayable",
      "type": "function"
    },
    {
      "inputs": [
        {
          "internalType": "address",
          "name": "_user",
          "type": "address"
        },
        {
          "internalType": "address",
          "name": "_token",
          "type": "address"
        },
        {
          "internalType": "uint256",
          "name": "_amount",
          "type": "uint256"
        }
      ],
      "name": "updateBalance",
      "outputs": [],
      "stateMutability": "nonpayable",
      "type": "function"
    },
    {
      "inputs": [
        {
          "internalType": "address",
          "name": "_contract",
          "type": "address"
        },
        {
          "internalType": "uint256",
          "name": "_amount",
          "type": "uint256"
        }
      ],
      "name": "withdraw",
      "outputs": [],
      "stateMutability": "nonpayable",
      "type": "function"
    }
  ],
  "transactionHash": "0x02fcd3de1f05d877d99c786515fed1b594f3cd5c2e9d3d45865fcb2fc0d3d35c",
  "args": [],
  "numDeployments": 1,
  "solcInputHash": "13b7e66e945a69819bc922fb5d303a55",
  "bytecode": "0x60a060405234801561001057600080fd5b50336080526080516143a3610030600039600061038d01526143a36000f3fe608060405234801561001057600080fd5b50600436106100d45760003560e01c8063a234770611610081578063cca3e8321161005b578063cca3e832146101fb578063f3fef3a31461024c578063f628fce81461025f57600080fd5b8063a234770614610172578063b2930ee614610185578063b9ca87241461019857600080fd5b806336dc1c54116100b257806336dc1c541461011457806347e7ef2414610127578063833f7e461461013a57600080fd5b80631439f465146100d95780632605594b146100ee57806334954a9914610101575b600080fd5b6100ec6100e7366004611227565b610272565b005b6100ec6100fc366004611263565b610375565b6100ec61010f366004611227565b610501565b6100ec610122366004611296565b61058e565b6100ec6101353660046112dc565b610869565b61015d610148366004611306565b60016020526000908152604090205460ff1681565b60405190151581526020015b60405180910390f35b6100ec610180366004611296565b610a80565b6100ec610193366004611328565b610cca565b6101d66101a6366004611263565b600060208181529281526040808220909352908152205473ffffffffffffffffffffffffffffffffffffffff1681565b60405173ffffffffffffffffffffffffffffffffffffffff9091168152602001610169565b61023e610209366004611306565b33600090815260026020908152604080832073ffffffffffffffffffffffffffffffffffffffff949094168352929052205490565b604051908152602001610169565b6100ec61025a3660046112dc565b610eb4565b6100ec61026d366004611328565b61103b565b3360009081526001602052604090205460ff166102bb576040517f638f39f400000000000000000000000000000000000000000000000000000000815260040160405180910390fd5b73ffffffffffffffffffffffffffffffffffffffff808416600090815260026020908152604080832093861683529290522054811115610327576040517fefc60c1400000000000000000000000000000000000000000000000000000000815260040160405180910390fd5b73ffffffffffffffffffffffffffffffffffffffff80841660009081526002602090815260408083209386168352929052908120805483929061036b908490611393565b9091555050505050565b3373ffffffffffffffffffffffffffffffffffffffff7f000000000000000000000000000000000000000000000000000000000000000016146103e4576040517f638f39f400000000000000000000000000000000000000000000000000000000815260040160405180910390fd5b60003083836040516103f5906111f1565b73ffffffffffffffffffffffffffffffffffffffff938416815291831660208301529091166040820152606001604051809103906000f08015801561043e573d6000803e3d6000fd5b5073ffffffffffffffffffffffffffffffffffffffff8481166000908152602081815260408083208785168452825280832080547fffffffffffffffffffffffff000000000000000000000000000000000000000016948616948517905583835260019182905280832080547fffffffffffffffffffffffffffffffffffffffffffffffffffffffffffffff00169092179091555192935090917fdc0c3000f4fba842553204bdd54b573d96313c16826cdb62f3eca6526bc8c2619190a2505050565b3360009081526001602052604090205460ff1661054a576040517f638f39f400000000000000000000000000000000000000000000000000000000815260040160405180910390fd5b73ffffffffffffffffffffffffffffffffffffffff80841660009081526002602090815260408083209386168352929052908120805483929061036b9084906113ac565b73ffffffffffffffffffffffffffffffffffffffff8281166000908152602081815260408083208585168452909152902054166105f7576040517f8a20798000000000000000000000000000000000000000000000000000000000815260040160405180910390fd5b60008273ffffffffffffffffffffffffffffffffffffffff1663313ce5676040518163ffffffff1660e01b8152600401602060405180830381865afa158015610644573d6000803e3d6000fd5b505050506040513d601f19601f8201168201806040525081019061066891906113bf565b61067390600a611502565b90506000816106828688611511565b61068c9190611528565b9050600081116106fd576040517f08c379a000000000000000000000000000000000000000000000000000000000815260206004820152600e60248201527f496e76616c696420706172616d7300000000000000000000000000000000000060448201526064015b60405180910390fd5b33600090815260026020908152604080832073ffffffffffffffffffffffffffffffffffffffff87168452909152902054811115610767576040517fefc60c1400000000000000000000000000000000000000000000000000000000815260040160405180910390fd5b33600090815260026020908152604080832073ffffffffffffffffffffffffffffffffffffffff87168452909152812080548392906107a7908490611393565b909155505073ffffffffffffffffffffffffffffffffffffffff8481166000908152602081815260408083208785168452909152908190205490517fac15e2f4000000000000000000000000000000000000000000000000000000008152336004820152602481018990526044810188905260016064820152911690819063ac15e2f490608401600060405180830381600087803b15801561084857600080fd5b505af115801561085c573d6000803e3d6000fd5b5050505050505050505050565b6040517fdd62ed3e000000000000000000000000000000000000000000000000000000008152336004820152306024820152819073ffffffffffffffffffffffffffffffffffffffff84169063dd62ed3e90604401602060405180830381865afa1580156108db573d6000803e3d6000fd5b505050506040513d601f19601f820116820180604052508101906108ff9190611563565b1015610967576040517f08c379a000000000000000000000000000000000000000000000000000000000815260206004820152601660248201527f496e73756666696369656e7420616c6c6f77616e63650000000000000000000060448201526064016106f4565b6040517f23b872dd0000000000000000000000000000000000000000000000000000000081523360048201523060248201526044810182905260009073ffffffffffffffffffffffffffffffffffffffff8416906323b872dd906064016020604051808303816000875af11580156109e3573d6000803e3d6000fd5b505050506040513d601f19601f82011682018060405250810190610a07919061157c565b905080610a40576040517fe21642bc00000000000000000000000000000000000000000000000000000000815260040160405180910390fd5b33600090815260026020908152604080832073ffffffffffffffffffffffffffffffffffffffff871684529091528120805484929061036b9084906113ac565b600084118015610a905750600083115b610af6576040517f08c379a000000000000000000000000000000000000000000000000000000000815260206004820152600e60248201527f496e76616c696420706172616d7300000000000000000000000000000000000060448201526064016106f4565b73ffffffffffffffffffffffffffffffffffffffff828116600090815260208181526040808320858516845290915290205416610b5f576040517f8a20798000000000000000000000000000000000000000000000000000000000815260040160405180910390fd5b33600090815260026020908152604080832073ffffffffffffffffffffffffffffffffffffffff86168452909152902054831115610bc9576040517fefc60c1400000000000000000000000000000000000000000000000000000000815260040160405180910390fd5b33600090815260026020908152604080832073ffffffffffffffffffffffffffffffffffffffff8616845290915281208054859290610c09908490611393565b909155505073ffffffffffffffffffffffffffffffffffffffff82811660009081526020818152604080832085851684529091528082205490517fac15e2f40000000000000000000000000000000000000000000000000000000081523360048201526024810188905260448101879052606481019290925290911690819063ac15e2f490608401600060405180830381600087803b158015610cab57600080fd5b505af1158015610cbf573d6000803e3d6000fd5b505050505050505050565b60008311610d34576040517f08c379a000000000000000000000000000000000000000000000000000000000815260206004820152600e60248201527f696e76616c696420706172616d7300000000000000000000000000000000000060448201526064016106f4565b33600090815260026020908152604080832073ffffffffffffffffffffffffffffffffffffffff85168452909152902054831115610d9e576040517fefc60c1400000000000000000000000000000000000000000000000000000000815260040160405180910390fd5b73ffffffffffffffffffffffffffffffffffffffff828116600090815260208181526040808320858516845290915290205416610e07576040517f8a20798000000000000000000000000000000000000000000000000000000000815260040160405180910390fd5b73ffffffffffffffffffffffffffffffffffffffff8281166000908152602081815260408083208585168452909152908190205490517fc473a3ab00000000000000000000000000000000000000000000000000000000815233600482015260248101869052911690819063c473a3ab906044015b600060405180830381600087803b158015610e9657600080fd5b505af1158015610eaa573d6000803e3d6000fd5b5050505050505050565b33600090815260026020908152604080832073ffffffffffffffffffffffffffffffffffffffff86168452909152902054811115610f1e576040517fefc60c1400000000000000000000000000000000000000000000000000000000815260040160405180910390fd5b33600090815260026020908152604080832073ffffffffffffffffffffffffffffffffffffffff8616845290915281208054839290610f5e908490611393565b90915550506040517fa9059cbb0000000000000000000000000000000000000000000000000000000081523360048201526024810182905260009073ffffffffffffffffffffffffffffffffffffffff84169063a9059cbb906044016020604051808303816000875af1158015610fd9573d6000803e3d6000fd5b505050506040513d601f19601f82011682018060405250810190610ffd919061157c565b905080611036576040517fe21642bc00000000000000000000000000000000000000000000000000000000815260040160405180910390fd5b505050565b600083116110a5576040517f08c379a000000000000000000000000000000000000000000000000000000000815260206004820152600e60248201527f696e76616c696420706172616d7300000000000000000000000000000000000060448201526064016106f4565b33600090815260026020908152604080832073ffffffffffffffffffffffffffffffffffffffff8616845290915290205483111561110f576040517fefc60c1400000000000000000000000000000000000000000000000000000000815260040160405180910390fd5b73ffffffffffffffffffffffffffffffffffffffff828116600090815260208181526040808320858516845290915290205416611178576040517f8a20798000000000000000000000000000000000000000000000000000000000815260040160405180910390fd5b73ffffffffffffffffffffffffffffffffffffffff8281166000908152602081815260408083208585168452909152908190205490517fe354ac5000000000000000000000000000000000000000000000000000000000815233600482015260248101869052911690819063e354ac5090604401610e7c565b612dcf8061159f83390190565b803573ffffffffffffffffffffffffffffffffffffffff8116811461122257600080fd5b919050565b60008060006060848603121561123c57600080fd5b611245846111fe565b9250611253602085016111fe565b9150604084013590509250925092565b6000806040838503121561127657600080fd5b61127f836111fe565b915061128d602084016111fe565b90509250929050565b600080600080608085870312156112ac57600080fd5b84359350602085013592506112c3604086016111fe565b91506112d1606086016111fe565b905092959194509250565b600080604083850312156112ef57600080fd5b6112f8836111fe565b946020939093013593505050565b60006020828403121561131857600080fd5b611321826111fe565b9392505050565b60008060006060848603121561133d57600080fd5b8335925061134d602085016111fe565b915061135b604085016111fe565b90509250925092565b7f4e487b7100000000000000000000000000000000000000000000000000000000600052601160045260246000fd5b818103818111156113a6576113a6611364565b92915050565b808201808211156113a6576113a6611364565b6000602082840312156113d157600080fd5b815160ff8116811461132157600080fd5b600181815b8085111561143b57817fffffffffffffffffffffffffffffffffffffffffffffffffffffffffffffffff0482111561142157611421611364565b8085161561142e57918102915b93841c93908002906113e7565b509250929050565b600082611452575060016113a6565b8161145f575060006113a6565b8160018114611475576002811461147f5761149b565b60019150506113a6565b60ff84111561149057611490611364565b50506001821b6113a6565b5060208310610133831016604e8410600b84101617156114be575081810a6113a6565b6114c883836113e2565b807fffffffffffffffffffffffffffffffffffffffffffffffffffffffffffffffff048211156114fa576114fa611364565b029392505050565b600061132160ff841683611443565b80820281158282048414176113a6576113a6611364565b60008261155e577f4e487b7100000000000000000000000000000000000000000000000000000000600052601260045260246000fd5b500490565b60006020828403121561157557600080fd5b5051919050565b60006020828403121561158e57600080fd5b8151801515811461132157600080fdfe60e06040523480156200001157600080fd5b5060405162002dcf38038062002dcf83398101604081905262000034916200006f565b6001600160a01b0392831660805290821660a0521660c052620000b9565b80516001600160a01b03811681146200006a57600080fd5b919050565b6000806000606084860312156200008557600080fd5b620000908462000052565b9250620000a06020850162000052565b9150620000b06040850162000052565b90509250925092565b60805160a05160c051612bbb62000214600039600081816101260152818161054c0152818161098e01528181610a6501528181610d1201528181610de901528181611065015281816113d701528181611d6b01528181611f4f0152818161236501526125490152600081816092015281816105100152818161058a01528181610765015281816108bd01528181610c3f01528181610f0f0152818161113a01528181611217015281816114aa0152818161158101528181611e75015261246f01526000818160f5015281816103e601528181610671015281816108ed015281816109bd01528181610a9401528181610c7101528181610d4101528181610e18015281816110940152818161116a0152818161124701528181611409015281816114d9015281816115b001528181611d4001528181611ea401528181611f220152818161233a0152818161249e015261251c0152612bbb6000f3fe608060405234801561001057600080fd5b50600436106100885760003560e01c80639e853afe1161005b5780639e853afe14610121578063ac15e2f414610148578063c473a3ab1461015d578063e354ac501461017057600080fd5b80633ce68dd51461008d5780637a1c6a45146100de578063893d20e8146100f35780639477d03414610119575b600080fd5b6100b47f000000000000000000000000000000000000000000000000000000000000000081565b60405173ffffffffffffffffffffffffffffffffffffffff90911681526020015b60405180910390f35b6100e6610183565b6040516100d59190612733565b7f00000000000000000000000000000000000000000000000000000000000000006100b4565b6100e66102ad565b6100b47f000000000000000000000000000000000000000000000000000000000000000081565b61015b610156366004612854565b6103ce565b005b61015b61016b3660046128a1565b610659565b61015b61017e3660046128a1565b610ea2565b60606001805480602002602001604051908101604052809291908181526020016000905b828210156102a45760008481526020908190206040805161010081018252600686029092018054835260018082015473ffffffffffffffffffffffffffffffffffffffff81169585019590955292939092918401917401000000000000000000000000000000000000000090910460ff169081111561022857610228612704565b600181111561023957610239612704565b8152600282015460208083019190915260038301546040830152600483015460ff81161515606084015273ffffffffffffffffffffffffffffffffffffffff6101009091048116608084015260059093015490921660a09091015290825260019290920191016101a7565b50505050905090565b60606000805480602002602001604051908101604052809291908181526020016000905b828210156102a45760008481526020908190206040805161010081018252600686029092018054835260018082015473ffffffffffffffffffffffffffffffffffffffff81169585019590955292939092918401917401000000000000000000000000000000000000000090910460ff169081111561035257610352612704565b600181111561036357610363612704565b8152600282015460208083019190915260038301546040830152600483015460ff81161515606084015273ffffffffffffffffffffffffffffffffffffffff6101009091048116608084015260059093015490921660a09091015290825260019290920191016102d1565b3373ffffffffffffffffffffffffffffffffffffffff7f00000000000000000000000000000000000000000000000000000000000000001614610472576040517f08c379a000000000000000000000000000000000000000000000000000000000815260206004820152600e60248201527f4e6f7420417574686f726973656400000000000000000000000000000000000060448201526064015b60405180910390fd5b60006040518061010001604052808361049e57600360008154610494906128fa565b91829055506104b3565b6002600081546104ad906128fa565b91829055505b81526020018673ffffffffffffffffffffffffffffffffffffffff168152602001836104e05760016104e3565b60005b60018111156104f4576104f4612704565b81526020018581526020018481526020016000151581526020017f000000000000000000000000000000000000000000000000000000000000000073ffffffffffffffffffffffffffffffffffffffff1681526020017f000000000000000000000000000000000000000000000000000000000000000073ffffffffffffffffffffffffffffffffffffffff16815250905060007f000000000000000000000000000000000000000000000000000000000000000073ffffffffffffffffffffffffffffffffffffffff1663313ce5676040518163ffffffff1660e01b8152600401602060405180830381865afa1580156105f3573d6000803e3d6000fd5b505050506040513d601f19601f820116820180604052508101906106179190612932565b61062290600a612a7e565b905060006106308385611634565b905083610646576106418183611bc4565b610650565b61065081836121c2565b50505050505050565b3373ffffffffffffffffffffffffffffffffffffffff7f000000000000000000000000000000000000000000000000000000000000000016146106f8576040517f08c379a000000000000000000000000000000000000000000000000000000000815260206004820152600e60248201527f4e6f7420417574686f72697365640000000000000000000000000000000000006044820152606401610469565b600154610761576040517f08c379a000000000000000000000000000000000000000000000000000000000815260206004820152601660248201527f6e6f2073656c6c206f72646572732070726573656e74000000000000000000006044820152606401610469565b60007f000000000000000000000000000000000000000000000000000000000000000073ffffffffffffffffffffffffffffffffffffffff1663313ce5676040518163ffffffff1660e01b8152600401602060405180830381865afa1580156107ce573d6000803e3d6000fd5b505050506040513d601f19601f820116820180604052508101906107f29190612932565b6107fd90600a612a7e565b90505b600082118015610811575060015415155b15610e9d576001805460009190610829908290612a8d565b8154811061083957610839612aa0565b90600052602060002090600602019050600082826003015483600201546108609190612acf565b61086a9190612ae6565b9050808410610bbf5760038201546040517f34954a9900000000000000000000000000000000000000000000000000000000815273ffffffffffffffffffffffffffffffffffffffff87811660048301527f00000000000000000000000000000000000000000000000000000000000000008116602483015260448201929092527f0000000000000000000000000000000000000000000000000000000000000000909116906334954a9990606401600060405180830381600087803b15801561093357600080fd5b505af1158015610947573d6000803e3d6000fd5b50506040517f1439f46500000000000000000000000000000000000000000000000000000000815273ffffffffffffffffffffffffffffffffffffffff88811660048301527f000000000000000000000000000000000000000000000000000000000000000081166024830152604482018590527f0000000000000000000000000000000000000000000000000000000000000000169250631439f4659150606401600060405180830381600087803b158015610a0357600080fd5b505af1158015610a17573d6000803e3d6000fd5b5050505060018201546040517f34954a9900000000000000000000000000000000000000000000000000000000815273ffffffffffffffffffffffffffffffffffffffff91821660048201527f000000000000000000000000000000000000000000000000000000000000000082166024820152604481018390527f0000000000000000000000000000000000000000000000000000000000000000909116906334954a9990606401600060405180830381600087803b158015610ada57600080fd5b505af1158015610aee573d6000803e3d6000fd5b505050508084610afe9190612a8d565b93506001805480610b1157610b11612b21565b60008281526020812060067fffffffffffffffffffffffffffffffffffffffffffffffffffffffffffffffff909301928302018181556001810180547fffffffffffffffffffffff00000000000000000000000000000000000000000090811690915560028201839055600382019290925560048101805490921690915560050180547fffffffffffffffffffffffff00000000000000000000000000000000000000001690559055610e96565b6002820154600090610bd18587612acf565b610bdb9190612ae6565b9050600084846002015483610bf09190612acf565b610bfa9190612ae6565b6040517f34954a9900000000000000000000000000000000000000000000000000000000815273ffffffffffffffffffffffffffffffffffffffff89811660048301527f000000000000000000000000000000000000000000000000000000000000000081166024830152604482018590529192507f0000000000000000000000000000000000000000000000000000000000000000909116906334954a9990606401600060405180830381600087803b158015610cb757600080fd5b505af1158015610ccb573d6000803e3d6000fd5b50506040517f1439f46500000000000000000000000000000000000000000000000000000000815273ffffffffffffffffffffffffffffffffffffffff8a811660048301527f000000000000000000000000000000000000000000000000000000000000000081166024830152604482018590527f0000000000000000000000000000000000000000000000000000000000000000169250631439f4659150606401600060405180830381600087803b158015610d8757600080fd5b505af1158015610d9b573d6000803e3d6000fd5b5050505060018401546040517f34954a9900000000000000000000000000000000000000000000000000000000815273ffffffffffffffffffffffffffffffffffffffff91821660048201527f000000000000000000000000000000000000000000000000000000000000000082166024820152604481018390527f0000000000000000000000000000000000000000000000000000000000000000909116906334954a9990606401600060405180830381600087803b158015610e5e57600080fd5b505af1158015610e72573d6000803e3d6000fd5b5050505081846003016000828254610e8a9190612a8d565b90915550600096505050505b5050610800565b505050565b600054610f0b576040517f08c379a000000000000000000000000000000000000000000000000000000000815260206004820152601860248201527f6e6f20627579657273206f72646572732070726573656e7400000000000000006044820152606401610469565b60007f000000000000000000000000000000000000000000000000000000000000000073ffffffffffffffffffffffffffffffffffffffff1663313ce5676040518163ffffffff1660e01b8152600401602060405180830381865afa158015610f78573d6000803e3d6000fd5b505050506040513d601f19601f82011682018060405250810190610f9c9190612932565b610fa790600a612a7e565b90505b600082118015610fbb575060005415155b15610e9d57600080548190610fd290600190612a8d565b81548110610fe257610fe2612aa0565b90600052602060002090600602019050600082826003015483600201546110099190612acf565b6110139190612ae6565b905081600301548410611375576040517f34954a9900000000000000000000000000000000000000000000000000000000815273ffffffffffffffffffffffffffffffffffffffff86811660048301527f000000000000000000000000000000000000000000000000000000000000000081166024830152604482018390527f000000000000000000000000000000000000000000000000000000000000000016906334954a9990606401600060405180830381600087803b1580156110d857600080fd5b505af11580156110ec573d6000803e3d6000fd5b5050505060038201546040517f1439f46500000000000000000000000000000000000000000000000000000000815273ffffffffffffffffffffffffffffffffffffffff87811660048301527f00000000000000000000000000000000000000000000000000000000000000008116602483015260448201929092527f000000000000000000000000000000000000000000000000000000000000000090911690631439f46590606401600060405180830381600087803b1580156111b057600080fd5b505af11580156111c4573d6000803e3d6000fd5b50505050600182015460038301546040517f34954a9900000000000000000000000000000000000000000000000000000000815273ffffffffffffffffffffffffffffffffffffffff92831660048201527f00000000000000000000000000000000000000000000000000000000000000008316602482015260448101919091527f0000000000000000000000000000000000000000000000000000000000000000909116906334954a9990606401600060405180830381600087803b15801561128d57600080fd5b505af11580156112a1573d6000803e3d6000fd5b50505060038301546112b4915085612a8d565b935060008054806112c7576112c7612b21565b60008281526020812060067fffffffffffffffffffffffffffffffffffffffffffffffffffffffffffffffff909301928302018181556001810180547fffffffffffffffffffffff00000000000000000000000000000000000000000090811690915560028201839055600382019290925560048101805490921690915560050180547fffffffffffffffffffffffff0000000000000000000000000000000000000000169055905561162d565b6000838360020154866113889190612acf565b6113929190612ae6565b6040517f34954a9900000000000000000000000000000000000000000000000000000000815273ffffffffffffffffffffffffffffffffffffffff88811660048301527f000000000000000000000000000000000000000000000000000000000000000081166024830152604482018390529192507f0000000000000000000000000000000000000000000000000000000000000000909116906334954a9990606401600060405180830381600087803b15801561144f57600080fd5b505af1158015611463573d6000803e3d6000fd5b50506040517f1439f46500000000000000000000000000000000000000000000000000000000815273ffffffffffffffffffffffffffffffffffffffff89811660048301527f000000000000000000000000000000000000000000000000000000000000000081166024830152604482018990527f0000000000000000000000000000000000000000000000000000000000000000169250631439f4659150606401600060405180830381600087803b15801561151f57600080fd5b505af1158015611533573d6000803e3d6000fd5b5050505060018301546040517f34954a9900000000000000000000000000000000000000000000000000000000815273ffffffffffffffffffffffffffffffffffffffff91821660048201527f000000000000000000000000000000000000000000000000000000000000000082166024820152604481018790527f0000000000000000000000000000000000000000000000000000000000000000909116906334954a9990606401600060405180830381600087803b1580156115f657600080fd5b505af115801561160a573d6000803e3d6000fd5b50505050848360030160008282546116229190612a8d565b909155506000955050505b5050610faa565b60008082611643576001611646565b60005b80546001808201835560008381526020908190208851600685029091019081559088015181830180547fffffffffffffffffffffffff0000000000000000000000000000000000000000811673ffffffffffffffffffffffffffffffffffffffff909316928317825560408b0151959850959650899592949390927fffffffffffffffffffffff00000000000000000000000000000000000000000016909117907401000000000000000000000000000000000000000090849081111561170f5761170f612704565b0217905550606082015160028201556080820151600382015560a082015160048201805460c08501517fffffffffffffffffffffff0000000000000000000000000000000000000000009091169215157fffffffffffffffffffffff0000000000000000000000000000000000000000ff169290921761010073ffffffffffffffffffffffffffffffffffffffff9384160217905560e090920151600590910180547fffffffffffffffffffffffff000000000000000000000000000000000000000016919092161790555b60008211801561181b57506060840151816117f7600185612a8d565b8154811061180757611807612aa0565b906000526020600020906006020160020154105b15611a29578061182c600184612a8d565b8154811061183c5761183c612aa0565b906000526020600020906006020181838154811061185c5761185c612aa0565b6000918252602090912082546006909202019081556001808301805482840180547fffffffffffffffffffffffff0000000000000000000000000000000000000000811673ffffffffffffffffffffffffffffffffffffffff9093169283178255925460ff7401000000000000000000000000000000000000000091829004169491937fffffffffffffffffffffff000000000000000000000000000000000000000000169092179190849081111561191757611917612704565b0217905550600282810154908201556003808301549082015560048083018054918301805460ff90931615157fffffffffffffffffffffffffffffffffffffffffffffffffffffffffffffff00841681178255915473ffffffffffffffffffffffffffffffffffffffff6101009182900481169091027fffffffffffffffffffffff0000000000000000000000000000000000000000ff9093167fffffffffffffffffffffff000000000000000000000000000000000000000000909416939093179190911790556005928301549290910180547fffffffffffffffffffffffff0000000000000000000000000000000000000000169290911691909117905581611a2181612b50565b9250506117db565b83818381548110611a3c57611a3c612aa0565b60009182526020918290208351600690920201908155908201516001808301805473ffffffffffffffffffffffffffffffffffffffff9093167fffffffffffffffffffffffff000000000000000000000000000000000000000084168117825560408601519391927fffffffffffffffffffffff000000000000000000000000000000000000000000909216179074010000000000000000000000000000000000000000908490811115611af257611af2612704565b0217905550606082015160028201556080820151600382015560a082015160048201805460c08501517fffffffffffffffffffffff0000000000000000000000000000000000000000009091169215157fffffffffffffffffffffff0000000000000000000000000000000000000000ff169290921761010073ffffffffffffffffffffffffffffffffffffffff9384160217905560e090920151600590910180547fffffffffffffffffffffffff000000000000000000000000000000000000000016919092161790555092915050565b600060018381548110611bd957611bd9612aa0565b9060005260206000209060060201905060016000805490501080611c31575060008054611c0890600190612a8d565b81548110611c1857611c18612aa0565b9060005260206000209060060201600201548160020154115b15611c3b57505050565b6000545b600081118015611c81575060028201546000611c5c600184612a8d565b81548110611c6c57611c6c612aa0565b90600052602060002090600602016002015410155b156121bc57600080611c94600184612a8d565b81548110611ca457611ca4612aa0565b9060005260206000209060060201905060008160030154846003015411611ccf578360030154611cd5565b81600301545b905080846003016000828254611ceb9190612a8d565b9250508190555080826003016000828254611d069190612a8d565b909155505060028085015490830154600091611d2191612a8d565b600184015490915073ffffffffffffffffffffffffffffffffffffffff7f00000000000000000000000000000000000000000000000000000000000000008116916334954a9991167f000000000000000000000000000000000000000000000000000000000000000089611d958787612acf565b611d9f9190612ae6565b6040517fffffffff0000000000000000000000000000000000000000000000000000000060e086901b16815273ffffffffffffffffffffffffffffffffffffffff93841660048201529290911660248301526044820152606401600060405180830381600087803b158015611e1357600080fd5b505af1158015611e27573d6000803e3d6000fd5b5050505060018301546040517f34954a9900000000000000000000000000000000000000000000000000000000815273ffffffffffffffffffffffffffffffffffffffff91821660048201527f000000000000000000000000000000000000000000000000000000000000000082166024820152604481018490527f0000000000000000000000000000000000000000000000000000000000000000909116906334954a9990606401600060405180830381600087803b158015611eea57600080fd5b505af1158015611efe573d6000803e3d6000fd5b5050506001860154600287015473ffffffffffffffffffffffffffffffffffffffff7f0000000000000000000000000000000000000000000000000000000000000000811693506334954a999216907f0000000000000000000000000000000000000000000000000000000000000000908a90611f7b9088612acf565b611f859190612ae6565b6040517fffffffff0000000000000000000000000000000000000000000000000000000060e086901b16815273ffffffffffffffffffffffffffffffffffffffff93841660048201529290911660248301526044820152606401600060405180830381600087803b158015611ff957600080fd5b505af115801561200d573d6000803e3d6000fd5b5050505082600301546000036120e557600080548061202e5761202e612b21565b60008281526020812060067fffffffffffffffffffffffffffffffffffffffffffffffffffffffffffffffff909301928302018181556001810180547fffffffffffffffffffffff00000000000000000000000000000000000000000090811690915560028201839055600382019290925560048101805490921690915560050180547fffffffffffffffffffffffff00000000000000000000000000000000000000001690559055836120e181612b50565b9450505b84600301546000036121b457600180548061210257612102612b21565b60008281526020812060067fffffffffffffffffffffffffffffffffffffffffffffffffffffffffffffffff909301928302018181556001810180547fffffffffffffffffffffff00000000000000000000000000000000000000000090811690915560028201839055600382019290925560048101805490921690915560050180547fffffffffffffffffffffffff00000000000000000000000000000000000000001690559055506121bc915050565b505050611c3f565b50505050565b60008083815481106121d6576121d6612aa0565b9060005260206000209060060201905060018080549050108061222c575060018054612203908290612a8d565b8154811061221357612213612aa0565b9060005260206000209060060201600201548160020154105b1561223657505050565b6001545b60008111801561227b5750600282015460016122568184612a8d565b8154811061226657612266612aa0565b90600052602060002090600602016002015411155b156121bc576000600161228e8184612a8d565b8154811061229e5761229e612aa0565b90600052602060002090600602019050600081600301548460030154106122c95781600301546122cf565b83600301545b9050808460030160008282546122e59190612a8d565b92505081905550808260030160008282546123009190612a8d565b90915550506002808301549085015460009161231b91612a8d565b600186015490915073ffffffffffffffffffffffffffffffffffffffff7f00000000000000000000000000000000000000000000000000000000000000008116916334954a9991167f00000000000000000000000000000000000000000000000000000000000000008961238f8787612acf565b6123999190612ae6565b6040517fffffffff0000000000000000000000000000000000000000000000000000000060e086901b16815273ffffffffffffffffffffffffffffffffffffffff93841660048201529290911660248301526044820152606401600060405180830381600087803b15801561240d57600080fd5b505af1158015612421573d6000803e3d6000fd5b5050505060018501546040517f34954a9900000000000000000000000000000000000000000000000000000000815273ffffffffffffffffffffffffffffffffffffffff91821660048201527f000000000000000000000000000000000000000000000000000000000000000082166024820152604481018490527f0000000000000000000000000000000000000000000000000000000000000000909116906334954a9990606401600060405180830381600087803b1580156124e457600080fd5b505af11580156124f8573d6000803e3d6000fd5b5050506001840154600285015473ffffffffffffffffffffffffffffffffffffffff7f0000000000000000000000000000000000000000000000000000000000000000811693506334954a999216907f0000000000000000000000000000000000000000000000000000000000000000908a906125759088612acf565b61257f9190612ae6565b6040517fffffffff0000000000000000000000000000000000000000000000000000000060e086901b16815273ffffffffffffffffffffffffffffffffffffffff93841660048201529290911660248301526044820152606401600060405180830381600087803b1580156125f357600080fd5b505af1158015612607573d6000803e3d6000fd5b5050505082600301546000036126df57600180548061262857612628612b21565b60008281526020812060067fffffffffffffffffffffffffffffffffffffffffffffffffffffffffffffffff909301928302018181556001810180547fffffffffffffffffffffff00000000000000000000000000000000000000000090811690915560028201839055600382019290925560048101805490921690915560050180547fffffffffffffffffffffffff00000000000000000000000000000000000000001690559055836126db81612b50565b9450505b84600301546000036126fc57600080548061210257612102612b21565b50505061223a565b7f4e487b7100000000000000000000000000000000000000000000000000000000600052602160045260246000fd5b60208082528251828201819052600091906040908185019086840185805b8381101561281d5782518051865273ffffffffffffffffffffffffffffffffffffffff88820151168887015286810151600281106127b6577f4e487b710000000000000000000000000000000000000000000000000000000084526021600452602484fd5b86880152606081810151908701526080808201519087015260a08082015115159087015260c08082015173ffffffffffffffffffffffffffffffffffffffff9081169188019190915260e09182015116908601526101009094019391860191600101612751565b509298975050505050505050565b803573ffffffffffffffffffffffffffffffffffffffff8116811461284f57600080fd5b919050565b6000806000806080858703121561286a57600080fd5b6128738561282b565b935060208501359250604085013591506060850135801515811461289657600080fd5b939692955090935050565b600080604083850312156128b457600080fd5b6128bd8361282b565b946020939093013593505050565b7f4e487b7100000000000000000000000000000000000000000000000000000000600052601160045260246000fd5b60007fffffffffffffffffffffffffffffffffffffffffffffffffffffffffffffffff820361292b5761292b6128cb565b5060010190565b60006020828403121561294457600080fd5b815160ff8116811461295557600080fd5b9392505050565b600181815b808511156129b557817fffffffffffffffffffffffffffffffffffffffffffffffffffffffffffffffff0482111561299b5761299b6128cb565b808516156129a857918102915b93841c9390800290612961565b509250929050565b6000826129cc57506001612a78565b816129d957506000612a78565b81600181146129ef57600281146129f957612a15565b6001915050612a78565b60ff841115612a0a57612a0a6128cb565b50506001821b612a78565b5060208310610133831016604e8410600b8410161715612a38575081810a612a78565b612a42838361295c565b807fffffffffffffffffffffffffffffffffffffffffffffffffffffffffffffffff04821115612a7457612a746128cb565b0290505b92915050565b600061295560ff8416836129bd565b81810381811115612a7857612a786128cb565b7f4e487b7100000000000000000000000000000000000000000000000000000000600052603260045260246000fd5b8082028115828204841417612a7857612a786128cb565b600082612b1c577f4e487b7100000000000000000000000000000000000000000000000000000000600052601260045260246000fd5b500490565b7f4e487b7100000000000000000000000000000000000000000000000000000000600052603160045260246000fd5b600081612b5f57612b5f6128cb565b507fffffffffffffffffffffffffffffffffffffffffffffffffffffffffffffffff019056fea264697066735822122023b76ab5a66c12f18639689f553d1e0d6124e259475b17c7e3337f4da034875c64736f6c63430008140033a26469706673582212203443de57d06fe12db7b9489273feef97eaee468ec6e311081a63934fb0d5072664736f6c63430008140033",
  "devdoc": {
    "kind": "dev",
    "methods": {},
    "version": 1
  },
  "userdoc": {
    "kind": "user",
    "methods": {},
    "version": 1
  },
  "storageLayout": {
    "storage": [
      {
        "astId": 4948,
        "contract": "contracts/OrderbookFactory.sol:OrderbookFactory",
        "label": "orderbooks",
        "offset": 0,
        "slot": "0",
        "type": "t_mapping(t_address,t_mapping(t_address,t_contract(Orderbook)4922))"
      },
      {
        "astId": 4952,
        "contract": "contracts/OrderbookFactory.sol:OrderbookFactory",
        "label": "isMapContract",
        "offset": 0,
        "slot": "1",
        "type": "t_mapping(t_address,t_bool)"
      },
      {
        "astId": 4958,
        "contract": "contracts/OrderbookFactory.sol:OrderbookFactory",
        "label": "balanceOf",
        "offset": 0,
        "slot": "2",
        "type": "t_mapping(t_address,t_mapping(t_address,t_uint256))"
      }
    ],
    "types": {
      "t_address": {
        "encoding": "inplace",
        "label": "address",
        "numberOfBytes": "20"
      },
      "t_bool": {
        "encoding": "inplace",
        "label": "bool",
        "numberOfBytes": "1"
      },
      "t_contract(Orderbook)4922": {
        "encoding": "inplace",
        "label": "contract Orderbook",
        "numberOfBytes": "20"
      },
      "t_mapping(t_address,t_bool)": {
        "encoding": "mapping",
        "key": "t_address",
        "label": "mapping(address => bool)",
        "numberOfBytes": "32",
        "value": "t_bool"
      },
      "t_mapping(t_address,t_contract(Orderbook)4922)": {
        "encoding": "mapping",
        "key": "t_address",
        "label": "mapping(address => contract Orderbook)",
        "numberOfBytes": "32",
        "value": "t_contract(Orderbook)4922"
      },
      "t_mapping(t_address,t_mapping(t_address,t_contract(Orderbook)4922))": {
        "encoding": "mapping",
        "key": "t_address",
        "label": "mapping(address => mapping(address => contract Orderbook))",
        "numberOfBytes": "32",
        "value": "t_mapping(t_address,t_contract(Orderbook)4922)"
      },
      "t_mapping(t_address,t_mapping(t_address,t_uint256))": {
        "encoding": "mapping",
        "key": "t_address",
        "label": "mapping(address => mapping(address => uint256))",
        "numberOfBytes": "32",
        "value": "t_mapping(t_address,t_uint256)"
      },
      "t_mapping(t_address,t_uint256)": {
        "encoding": "mapping",
        "key": "t_address",
        "label": "mapping(address => uint256)",
        "numberOfBytes": "32",
        "value": "t_uint256"
      },
      "t_uint256": {
        "encoding": "inplace",
        "label": "uint256",
        "numberOfBytes": "32"
      }
    }
  }
}